New greeter: 0x39858ED0D9e3c67E810830DE527eB313F4ce8594
calling sendAsync{"method":"eth_sendTransaction","params":[{"gas":"0x13a09","from":"0x39858ed0d9e3c67e810830de527eb313f4ce8594","to":"0x4f8d981ea47c6712fd0016ad79f8cd7a4e8de79e","data":"0xa41368620000000000000000000000000000000000000000000000000000000000000020000000000000000000000000000000000000000000000000000000000000003548656c6c6f2066726f6d203078333938353845443044396533633637453831303833304445353237654233313346346365383539340000000000000000000000"}],"id":6,"jsonrpc":"2.0"}
fetchRelaysAdded: found 4 events
fetchRelaysAdded: found unique relays: ["0x8F11A5A6054370cbbDbF3011d7C548a7F1405Da3"]
== getRelayInfoForManagers: found 6 unique RelayServerRegistered events
nextRelay: find fastest relay from: [{"0":"0x8F11A5A6054370cbbDbF3011d7C548a7F1405Da3","1":"0","2":"70","3":"https://optkovan22.relays.opengsn.org/gsn1","relayManager":"0x8F11A5A6054370cbbDbF3011d7C548a7F1405Da3","baseRelayFee":"0","pctRelayFee":"70","relayUrl":"https://optkovan22.relays.opengsn.org/gsn1"}]
getRelayAddressPing URL: https://optkovan22.relays.opengsn.org/gsn1
pingResponse: {"relayWorkerAddress":"0xf76f2425f59548d42f2c72349220e54896c417c4","relayManagerAddress":"0x8f11a5a6054370cbbdbf3011d7c548a7f1405da3","relayHubAddress":"0xceEd6F194C07EB606ae0F3899DdfA7dE8a4ABcB5","ownerAddress":"0x8C1FD2DE219c98f5F88620422e36a8A32f83324E","minGasPrice":"10000","maxAcceptanceBudget":"285252","chainId":"69","networkId":"69","ready":true,"version":"2.2.4"}
race finished with a result: {"winner":{"pingResponse":{"relayWorkerAddress":"0xf76f2425f59548d42f2c72349220e54896c417c4","relayManagerAddress":"0x8f11a5a6054370cbbdbf3011d7c548a7f1405da3","relayHubAddress":"0xceEd6F194C07EB606ae0F3899DdfA7dE8a4ABcB5","ownerAddress":"0x8C1FD2DE219c98f5F88620422e36a8A32f83324E","minGasPrice":"10000","maxAcceptanceBudget":"285252","chainId":"69","networkId":"69","ready":true,"version":"2.2.4"},"relayInfo":{"0":"0x8F11A5A6054370cbbDbF3011d7C548a7F1405Da3","1":"0","2":"70","3":"https://optkovan22.relays.opengsn.org/gsn1","relayManager":"0x8F11A5A6054370cbbDbF3011d7C548a7F1405Da3","baseRelayFee":"0","pctRelayFee":"70","relayUrl":"https://optkovan22.relays.opengsn.org/gsn1"}},"errors":{"dataType":"Map","value":[]}}
attempting relay: {"pingResponse":{"relayWorkerAddress":"0xf76f2425f59548d42f2c72349220e54896c417c4","relayManagerAddress":"0x8f11a5a6054370cbbdbf3011d7c548a7f1405da3","relayHubAddress":"0xceEd6F194C07EB606ae0F3899DdfA7dE8a4ABcB5","ownerAddress":"0x8C1FD2DE219c98f5F88620422e36a8A32f83324E","minGasPrice":"10000","maxAcceptanceBudget":"285252","chainId":"69","networkId":"69","ready":true,"version":"2.2.4"},"relayInfo":{"0":"0x8F11A5A6054370cbbDbF3011d7C548a7F1405Da3","1":"0","2":"70","3":"https://optkovan22.relays.opengsn.org/gsn1","relayManager":"0x8F11A5A6054370cbbDbF3011d7C548a7F1405Da3","baseRelayFee":"0","pctRelayFee":"70","relayUrl":"https://optkovan22.relays.opengsn.org/gsn1"}} transaction: {"gas":"0x13a09","from":"0x39858ed0d9e3c67e810830de527eb313f4ce8594","to":"0x4f8d981ea47c6712fd0016ad79f8cd7a4e8de79e","data":"0xa41368620000000000000000000000000000000000000000000000000000000000000020000000000000000000000000000000000000000000000000000000000000003548656c6c6f2066726f6d203078333938353845443044396533633637453831303833304445353237654233313346346365383539340000000000000000000000","gasPrice":"0x2ee0"}
Created HTTP relay request: {"relayRequest":{"request":{"to":"0x4f8d981ea47c6712fd0016ad79f8cd7a4e8de79e","data":"0xa41368620000000000000000000000000000000000000000000000000000000000000020000000000000000000000000000000000000000000000000000000000000003548656c6c6f2066726f6d203078333938353845443044396533633637453831303833304445353237654233313346346365383539340000000000000000000000","from":"0x39858ed0d9e3c67e810830de527eb313f4ce8594","value":"0","nonce":"0","gas":"80393","validUntil":"1809650"},"relayData":{"pctRelayFee":"70","baseRelayFee":"0","gasPrice":"12000","paymaster":"0x00B7B352C117Cd283Ce4A6Fc0Ba1F3D95Ea2036E","paymasterData":"0x","clientId":"1","forwarder":"0x39A2431c3256028a07198D2D27FD120a1f81ecae","relayWorker":"0xf76f2425f59548d42f2c72349220e54896c417c4"}},"metadata":{"relayHubAddress":"0xceEd6F194C07EB606ae0F3899DdfA7dE8a4ABcB5","signature":"0xc2b0f4c6b807151892c587ca375cf7ff25694d29ff1d5a42052a37d1e77c4a8b73d7e07cc529f05a325307e21cb4438059218d455d9bc242a71bf9fd762d39441b","approvalData":"0x","relayMaxNonce":41}}
relayTransaction response: 0xf904a926822ee083074c5294ceed6f194c07eb606ae0f3899ddfa7de8a4abcb580b9044410c454310000000000000000000000000000000000000000000000000000000000045a4400000000000000000000000000000000000000000000000000000000000000a000000000000000000000000000000000000000000000000000000000000003a000000000000000000000000000000000000000000000000000000000000004200000000000000000000000000000000000000000000000000000000000074c52000000000000000000000000000000000000000000000000000000000000004000000000000000000000000000000000000000000000000000000000000001e000000000000000000000000039858ed0d9e3c67e810830de527eb313f4ce85940000000000000000000000004f8d981ea47c6712fd0016ad79f8cd7a4e8de79e00000000000000000000000000000000000000000000000000000000000000000000000000000000000000000000000000000000000000000000000000013a09000000000000000000000000000000000000000000000000000000000000000000000000000000000000000000000000000000000000000000000000000000e000000000000000000000000000000000000000000000000000000000001b9cf20000000000000000000000000000000000000000000000000000000000000084a41368620000000000000000000000000000000000000000000000000000000000000020000000000000000000000000000000000000000000000000000000000000003548656c6c6f2066726f6d203078333938353845443044396533633637453831303833304445353237654233313346346365383539340000000000000000000000000000000000000000000000000000000000000000000000000000000000000000000000000000000000000000000000000000000000000000002ee000000000000000000000000000000000000000000000000000000000000000460000000000000000000000000000000000000000000000000000000000000000000000000000000000000000f76f2425f59548d42f2c72349220e54896c417c400000000000000000000000000b7b352c117cd283ce4a6fc0ba1f3d95ea2036e00000000000000000000000039a2431c3256028a07198d2d27fd120a1f81ecae0000000000000000000000000000000000000000000000000000000000000100000000000000000000000000000000000000000000000000000000000000000100000000000000000000000000000000000000000000000000000000000000000000000000000000000000000000000000000000000000000000000000000041c2b0f4c6b807151892c587ca375cf7ff25694d29ff1d5a42052a37d1e77c4a8b73d7e07cc529f05a325307e21cb4438059218d455d9bc242a71bf9fd762d39441b00000000000000000000000000000000000000000000000000000000000000000000000000000000000000000000000000000000000000000000000000000081ada0cff6b122c79bb740b0017f53b56f24d7a4d23ad891695f95ddcdc0973406dcada04ce4b4a03638c59f746792ef23d40d6597e91354546192d75a266a9cfca1463b, error: undefined
validateRelayResponse - valid transaction response
Broadcasting raw transaction signed by relay. TxHash: 0x5f77106619dbc6145cd6d3fe3a420fd6cc2d9d8f7f9453ccad847c41ce48213d
Transaction: :::::::::::::::::::::::
{
  hash: '0x5f77106619dbc6145cd6d3fe3a420fd6cc2d9d8f7f9453ccad847c41ce48213d',
  type: 0,
  accessList: null,
  blockHash: '0xdecd1a706b8cb5096193513ac9c52a05cc013c3fef064beabdfba961d31fcfd9',
  blockNumber: 1803652,
  transactionIndex: 0,
  confirmations: 1,
  from: '0xF76F2425F59548D42F2C72349220e54896c417c4',
  gasPrice: BigNumber { _hex: '0x2ee0', _isBigNumber: true },
  gasLimit: BigNumber { _hex: '0x074c52', _isBigNumber: true },
  to: '0xceEd6F194C07EB606ae0F3899DdfA7dE8a4ABcB5',
  value: BigNumber { _hex: '0x00', _isBigNumber: true },
  nonce: 38,
  data: '0x10c454310000000000000000000000000000000000000000000000000000000000045a4400000000000000000000000000000000000000000000000000000000000000a000000000000000000000000000000000000000000000000000000000000003a000000000000000000000000000000000000000000000000000000000000004200000000000000000000000000000000000000000000000000000000000074c52000000000000000000000000000000000000000000000000000000000000004000000000000000000000000000000000000000000000000000000000000001e000000000000000000000000039858ed0d9e3c67e810830de527eb313f4ce85940000000000000000000000004f8d981ea47c6712fd0016ad79f8cd7a4e8de79e00000000000000000000000000000000000000000000000000000000000000000000000000000000000000000000000000000000000000000000000000013a09000000000000000000000000000000000000000000000000000000000000000000000000000000000000000000000000000000000000000000000000000000e000000000000000000000000000000000000000000000000000000000001b9cf20000000000000000000000000000000000000000000000000000000000000084a41368620000000000000000000000000000000000000000000000000000000000000020000000000000000000000000000000000000000000000000000000000000003548656c6c6f2066726f6d203078333938353845443044396533633637453831303833304445353237654233313346346365383539340000000000000000000000000000000000000000000000000000000000000000000000000000000000000000000000000000000000000000000000000000000000000000002ee000000000000000000000000000000000000000000000000000000000000000460000000000000000000000000000000000000000000000000000000000000000000000000000000000000000f76f2425f59548d42f2c72349220e54896c417c400000000000000000000000000b7b352c117cd283ce4a6fc0ba1f3d95ea2036e00000000000000000000000039a2431c3256028a07198d2d27fd120a1f81ecae0000000000000000000000000000000000000000000000000000000000000100000000000000000000000000000000000000000000000000000000000000000100000000000000000000000000000000000000000000000000000000000000000000000000000000000000000000000000000000000000000000000000000041c2b0f4c6b807151892c587ca375cf7ff25694d29ff1d5a42052a37d1e77c4a8b73d7e07cc529f05a325307e21cb4438059218d455d9bc242a71bf9fd762d39441b000000000000000000000000000000000000000000000000000000000000000000000000000000000000000000000000000000000000000000000000000000',
  r: '0xcff6b122c79bb740b0017f53b56f24d7a4d23ad891695f95ddcdc0973406dcad',
  s: '0x4ce4b4a03638c59f746792ef23d40d6597e91354546192d75a266a9cfca1463b',
  v: 173,
  creates: null,
  chainId: 69,
  wait: [Function (anonymous)]
}
calling sendAsync{"method":"eth_getTransactionReceipt","params":["0x5f77106619dbc6145cd6d3fe3a420fd6cc2d9d8f7f9453ccad847c41ce48213d"],"id":10,"jsonrpc":"2.0"}
Receipt: :::::::::::::::::::::::::::
{
  to: '0xceEd6F194C07EB606ae0F3899DdfA7dE8a4ABcB5',
  from: '0xF76F2425F59548D42F2C72349220e54896c417c4',
  contractAddress: null,
  transactionIndex: 0,
  gasUsed: BigNumber { _hex: '0x035c74', _isBigNumber: true },
  logsBloom: '0x00000000000000000000000000000000000000000000000000000000000000000000000000000080000000000000000000000000000000002000000000000000000000000000000000000000000000000800000000000000000000000000000000000000000000000000001000000800000000000400000000800000000000000000000000800000000000000000000800000000000000000000000000000004000000000000000000000000000000000000000000800000000000200040000000000000000000000000000000000000100000000000000000000000000000000000000000000000000000000000000000000100000000000000000000000000',
  blockHash: '0xdecd1a706b8cb5096193513ac9c52a05cc013c3fef064beabdfba961d31fcfd9',
  transactionHash: '0x5f77106619dbc6145cd6d3fe3a420fd6cc2d9d8f7f9453ccad847c41ce48213d',
  logs: [
    {
      transactionIndex: 0,
      blockNumber: 1803652,
      transactionHash: '0x5f77106619dbc6145cd6d3fe3a420fd6cc2d9d8f7f9453ccad847c41ce48213d',
      address: '0xceEd6F194C07EB606ae0F3899DdfA7dE8a4ABcB5',
      topics: [Array],
      data: '0x0000000000000000000000004f8d981ea47c6712fd0016ad79f8cd7a4e8de79e00000000000000000000000000b7b352c117cd283ce4a6fc0ba1f3d95ea2036ea41368620000000000000000000000000000000000000000000000000000000000000000000000000000000000000000000000000000000000000000000000000000000000000000000000000000000000000000000000000000000120a23c00',
      logIndex: 0,
      blockHash: '0xdecd1a706b8cb5096193513ac9c52a05cc013c3fef064beabdfba961d31fcfd9'
    }
  ],
  blockNumber: 1803652,
  confirmations: 1,
  cumulativeGasUsed: BigNumber { _hex: '0x035c74', _isBigNumber: true },
  status: 1,
  type: 0,
  byzantium: true,
  events: [
    {
      transactionIndex: 0,
      blockNumber: 1803652,
      transactionHash: '0x5f77106619dbc6145cd6d3fe3a420fd6cc2d9d8f7f9453ccad847c41ce48213d',
      address: '0xceEd6F194C07EB606ae0F3899DdfA7dE8a4ABcB5',
      topics: [Array],
      data: '0x0000000000000000000000004f8d981ea47c6712fd0016ad79f8cd7a4e8de79e00000000000000000000000000b7b352c117cd283ce4a6fc0ba1f3d95ea2036ea41368620000000000000000000000000000000000000000000000000000000000000000000000000000000000000000000000000000000000000000000000000000000000000000000000000000000000000000000000000000000120a23c00',
      logIndex: 0,
      blockHash: '0xdecd1a706b8cb5096193513ac9c52a05cc013c3fef064beabdfba961d31fcfd9',
      removeListener: [Function (anonymous)],
      getBlock: [Function (anonymous)],
      getTransaction: [Function (anonymous)],
      getTransactionReceipt: [Function (anonymous)]
    }
  ]
}
